{
  "contractName": "ArtMarketplace",
  "abi": [
    {
      "anonymous": false,
      "inputs": [],
      "name": "RegisterItem",
      "type": "event"
    },
    {
      "anonymous": false,
      "inputs": [
        {
          "indexed": false,
          "internalType": "address",
          "name": "user",
          "type": "address"
        }
      ],
      "name": "RegisterUser",
      "type": "event"
    },
    {
      "inputs": [
        {
          "internalType": "address",
          "name": "_user",
          "type": "address"
        }
      ],
      "name": "registerUser",
      "outputs": [
        {
          "internalType": "bool",
          "name": "",
          "type": "bool"
        }
      ],
      "stateMutability": "nonpayable",
      "type": "function"
    },
    {
      "inputs": [
        {
          "internalType": "string",
          "name": "_name",
          "type": "string"
        },
        {
          "internalType": "uint256",
          "name": "_price",
          "type": "uint256"
        }
      ],
      "name": "registerItem",
      "outputs": [
        {
          "internalType": "bool",
          "name": "",
          "type": "bool"
        }
      ],
      "stateMutability": "nonpayable",
      "type": "function"
    },
    {
      "inputs": [
        {
          "components": [
            {
              "internalType": "string",
              "name": "name",
              "type": "string"
            },
            {
              "internalType": "uint256",
              "name": "id",
              "type": "uint256"
            },
            {
              "internalType": "uint256",
              "name": "price",
              "type": "uint256"
            },
            {
              "internalType": "enum ArtMarketplace.State",
              "name": "state",
              "type": "uint8"
            },
            {
              "internalType": "enum ArtMarketplace.Format",
              "name": "format",
              "type": "uint8"
            },
            {
              "internalType": "address payable",
              "name": "owner",
              "type": "address"
            }
          ],
          "internalType": "struct ArtMarketplace.Item",
          "name": "_item",
          "type": "tuple"
        }
      ],
      "name": "sellItem",
      "outputs": [
        {
          "internalType": "bool",
          "name": "",
          "type": "bool"
        }
      ],
      "stateMutability": "nonpayable",
      "type": "function"
    },
    {
      "inputs": [
        {
          "components": [
            {
              "internalType": "string",
              "name": "name",
              "type": "string"
            },
            {
              "internalType": "uint256",
              "name": "id",
              "type": "uint256"
            },
            {
              "internalType": "uint256",
              "name": "price",
              "type": "uint256"
            },
            {
              "internalType": "enum ArtMarketplace.State",
              "name": "state",
              "type": "uint8"
            },
            {
              "internalType": "enum ArtMarketplace.Format",
              "name": "format",
              "type": "uint8"
            },
            {
              "internalType": "address payable",
              "name": "owner",
              "type": "address"
            }
          ],
          "internalType": "struct ArtMarketplace.Item",
          "name": "_item",
          "type": "tuple"
        }
      ],
      "name": "buyItem",
      "outputs": [
        {
          "internalType": "bool",
          "name": "",
          "type": "bool"
        }
      ],
      "stateMutability": "nonpayable",
      "type": "function"
    },
    {
      "inputs": [
        {
          "internalType": "uint256",
          "name": "_id",
          "type": "uint256"
        }
      ],
      "name": "getItem",
      "outputs": [
        {
          "components": [
            {
              "internalType": "string",
              "name": "name",
              "type": "string"
            },
            {
              "internalType": "uint256",
              "name": "id",
              "type": "uint256"
            },
            {
              "internalType": "uint256",
              "name": "price",
              "type": "uint256"
            },
            {
              "internalType": "enum ArtMarketplace.State",
              "name": "state",
              "type": "uint8"
            },
            {
              "internalType": "enum ArtMarketplace.Format",
              "name": "format",
              "type": "uint8"
            },
            {
              "internalType": "address payable",
              "name": "owner",
              "type": "address"
            }
          ],
          "internalType": "struct ArtMarketplace.Item",
          "name": "_item",
          "type": "tuple"
        }
      ],
      "stateMutability": "view",
      "type": "function",
      "constant": true
    }
  ],
  "bytecode": "0x608060405234801561001057600080fd5b5061089d806100206000396000f3fe608060405234801561001057600080fd5b50600436106100575760003560e01c80632199d5cd1461005c5780632e9bcfa41461008c5780633129e773146100bc5780638b0a7f0a146100ec578063a81d35071461011c575b600080fd5b61007660048036038101906100719190610258565b61014c565b60405161008391906102a0565b60405180910390f35b6100a660048036038101906100a19190610437565b610153565b6040516100b391906102a0565b60405180910390f35b6100d660048036038101906100d19190610493565b61015b565b6040516100e391906106c0565b60405180910390f35b6101066004803603810190610101919061081e565b610168565b60405161011391906102a0565b60405180910390f35b6101366004803603810190610131919061081e565b61016f565b60405161014391906102a0565b60405180910390f35b6000919050565b600092915050565b610163610176565b919050565b6000919050565b6000919050565b6040518060c00160405280606081526020016000815260200160008152602001600060018111156101aa576101a9610557565b5b8152602001600060028111156101c3576101c2610557565b5b8152602001600073ffffffffffffffffffffffffffffffffffffffff1681525090565b6000604051905090565b600080fd5b600080fd5b600073ffffffffffffffffffffffffffffffffffffffff82169050919050565b6000610225826101fa565b9050919050565b6102358161021a565b811461024057600080fd5b50565b6000813590506102528161022c565b92915050565b60006020828403121561026e5761026d6101f0565b5b600061027c84828501610243565b91505092915050565b60008115159050919050565b61029a81610285565b82525050565b60006020820190506102b56000830184610291565b92915050565b600080fd5b600080fd5b6000601f19601f8301169050919050565b7f4e487b7100000000000000000000000000000000000000000000000000000000600052604160045260246000fd5b61030e826102c5565b810181811067ffffffffffffffff8211171561032d5761032c6102d6565b5b80604052505050565b60006103406101e6565b905061034c8282610305565b919050565b600067ffffffffffffffff82111561036c5761036b6102d6565b5b610375826102c5565b9050602081019050919050565b82818337600083830152505050565b60006103a461039f84610351565b610336565b9050828152602081018484840111156103c0576103bf6102c0565b5b6103cb848285610382565b509392505050565b600082601f8301126103e8576103e76102bb565b5b81356103f8848260208601610391565b91505092915050565b6000819050919050565b61041481610401565b811461041f57600080fd5b50565b6000813590506104318161040b565b92915050565b6000806040838503121561044e5761044d6101f0565b5b600083013567ffffffffffffffff81111561046c5761046b6101f5565b5b610478858286016103d3565b925050602061048985828601610422565b9150509250929050565b6000602082840312156104a9576104a86101f0565b5b60006104b784828501610422565b91505092915050565b600081519050919050565b600082825260208201905092915050565b60005b838110156104fa5780820151818401526020810190506104df565b83811115610509576000848401525b50505050565b600061051a826104c0565b61052481856104cb565b93506105348185602086016104dc565b61053d816102c5565b840191505092915050565b61055181610401565b82525050565b7f4e487b7100000000000000000000000000000000000000000000000000000000600052602160045260246000fd5b6002811061059757610596610557565b5b50565b60008190506105a882610586565b919050565b60006105b88261059a565b9050919050565b6105c8816105ad565b82525050565b600381106105df576105de610557565b5b50565b60008190506105f0826105ce565b919050565b6000610600826105e2565b9050919050565b610610816105f5565b82525050565b6000610621826101fa565b9050919050565b61063181610616565b82525050565b600060c0830160008301518482036000860152610654828261050f565b91505060208301516106696020860182610548565b50604083015161067c6040860182610548565b50606083015161068f60608601826105bf565b5060808301516106a26080860182610607565b5060a08301516106b560a0860182610628565b508091505092915050565b600060208201905081810360008301526106da8184610637565b905092915050565b600080fd5b600080fd5b600281106106f957600080fd5b50565b60008135905061070b816106ec565b92915050565b6003811061071e57600080fd5b50565b60008135905061073081610711565b92915050565b61073f81610616565b811461074a57600080fd5b50565b60008135905061075c81610736565b92915050565b600060c08284031215610778576107776106e2565b5b61078260c0610336565b9050600082013567ffffffffffffffff8111156107a2576107a16106e7565b5b6107ae848285016103d3565b60008301525060206107c284828501610422565b60208301525060406107d684828501610422565b60408301525060606107ea848285016106fc565b60608301525060806107fe84828501610721565b60808301525060a06108128482850161074d565b60a08301525092915050565b600060208284031215610834576108336101f0565b5b600082013567ffffffffffffffff811115610852576108516101f5565b5b61085e84828501610762565b9150509291505056fea264697066735822122017fe77ad378b50f9ef76ab3c6f958b7524d7e6f24907ad59cecedaadafa40c6264736f6c63430008090033",
  "immutableReferences": {},
  "source": "pragma solidity >=0.5.16 <0.9.0;\n\ncontract ArtMarketplace {\n\nenum State {\n    ForSale,\n    NotForSale\n}\n\nenum Format {\n    Gif,\n    Png,\n    Video\n}\n\nstruct Item {\n    string name;\n    uint id;\n    uint price;\n    State state;\n    Format format;\n    address payable owner;\n}/*\n    constructor   \n */\n/*constructor () public {\n}*/\n/**\n    Modifiers\n */\nmodifier isOwner() {\n    _;\n}\n\n/**\n    Events\n */\nevent RegisterUser(address user);\nevent RegisterItem();\n\n\n//FUNCTIONS\n/*\n    Register user on site\n    @returns true; if registeres user succesfuly\n*/\nfunction registerUser(address _user) public returns (bool){\n\n}\n/*\n    Register user's item, creates new item adds ownership to sender\n    @returns true; if item added successfuly \n*/\nfunction registerItem(string memory _name, uint _price) public returns (bool){\n\n}\n\n/*\n    Put item for sale. Changes item's state to ForSale\n    @returns true; if state changes succesfuly\n*/\nfunction sellItem(Item memory _item) public returns (bool) {\n\n}\n\n/*\n    Buy item. User chooses to buy item from public list of items by offering a price\n    @returns true; if succesful transfer occured\n */\n\nfunction buyItem(Item memory _item) public returns (bool) {\n\n}\n\n/*\n    Get item data\n    @returns item; In order to present Item on site, in user's wallet or on for sale page\n */\nfunction getItem (uint _id) public view returns (Item memory _item){\n\n}\n\n\n}//ArtMarketplace",
  "sourcePath": "/Users/matijasipek/Documents/blockchainproject/blockchain-developer-bootcamp-final-project/contracts/ArtMarketplace.sol",
  "compiler": {
    "name": "solc",
    "version": "0.8.9+commit.e5eed63a.Emscripten.clang"
  },
  "schemaVersion": "3.4.3",
  "updatedAt": "2021-10-28T07:58:23.216Z",
  "networkType": "ethereum",
  "devdoc": {
    "kind": "dev",
    "methods": {},
    "version": 1
  },
  "userdoc": {
    "events": {
      "RegisterUser(address)": {
        "notice": "Events"
      }
    },
    "kind": "user",
    "methods": {},
    "version": 1
  }
}